:020000040800F2
:10000000680D002079020008133B0008CD34000879
:10001000113B00088506000897400008000000001A
:10002000000000000000000000000000173B000876
:10003000CB07000800000000153B0008193B000832
:10004000930200089302000893020008930200083C
:10005000930200089302000893020008930200082C
:10006000930200089302000893020008E1060008CA
:10007000ED060008F906000805070008110700084A
:100080001D0700089302000893020008930200086D
:1000900093020008D10700089302000893020008A9
:1000A00093020008930200089302000893020008DC
:1000B000913B000893020008930200089302000895
:1000C00093020008930200089302000893020008BC
:1000D00093020008930200089302000893020008AC
:1000E000930200089302000893020008930200089C
:1000F000930200089302000893020008930200088C
:10010000930200089302000893020008930200087B
:10011000930200089302000893020008930200086B
:10012000930200089302000893020008930200085B
:10013000930200089302000893020008930200084B
:10014000930200089302000893020008930200083B
:10015000930200089302000893020008930200082B
:10016000930200089302000893020008930200081B
:10017000930200089302000893020008930200080B
:1001800093020008930200089302000893020008FB
:100190009302000800000000930200089302000888
:1001A00093020008930200089302000893020008DB
:1001B00093020008930200089302000893020008CB
:1001C00093020008930200089302000893020008BB
:1001D000930200089302000800F002F800F03CF8D7
:1001E0000AA090E8000C82448344AAF10107DA4592
:1001F00001D100F031F8AFF2090EBAE80F0013F0A8
:10020000010F18BFFB1A43F0010318479C4100007F
:10021000BC410000103A24BF78C878C1FAD8520710
:1002200024BF30C830C144BF04680C607047000070
:100230000023002400250026103A28BF78C1FBD8EF
:10024000520728BF30C148BF0B6070471FB504F08C
:1002500095F81FBD10B510BD00F058F81146FFF716
:10026000F5FF03F08FFF00F076F803B4FFF7F2FF1D
:1002700003BC00F07DF800000948804709480047AA
:10028000FEE7FEE7FEE7FEE7FEE7FEE7FEE7FEE746
:10029000FEE7FEE704480549054A064B70470000A3
:1002A000813B0008D901000868070020680D002084
:1002B00068090020680900204FF0000200B51346CD
:1002C00094469646203922BFA0E80C50A0E80C5076
:1002D000B1F12001BFF4F7AF090728BFA0E80C5027
:1002E00048BF0CC05DF804EB890028BF40F8042B20
:1002F00008BF704748BF20F8022B11F0804F18BF8D
:1003000000F8012B7047704770477047754600F042
:100310002BF8AE4605006946534620F00700854697
:1003200018B020B5FFF7B6FFBDE820404FF000063B
:100330004FF000074FF000084FF0000B21F00701CD
:10034000AC46ACE8C009ACE8C009ACE8C009ACE810
:10035000C0098D46704710B50446AFF300802046B3
:10036000BDE81040FFF781BF004870470807002034
:1003700001491820ABBEFEE726000200704710B509
:10038000846AE16D11F0500F06D0E16DC90625D5E4
:10039000204600F091FD10BDE06D40F40070E06576
:1003A00020680168090716D503F002F978B12068C2
:1003B000C068800400280ADBE06D20F48070E065EE
:1003C000E06DC00403D4E06D40F00100E06520461C
:1003D00000F070FD10BDC0688007EBE7616D496BF0
:1003E000BDE81040084710B5806AC16D41F040017A
:1003F000C165016E41F00401016600F05DFD10BDB4
:1004000010B5806A00F057FD10BD0000F8B5044635
:10041000002000902068816811F0010F4AD18168A6
:10042000254A114237D18168D5432940491C816052
:100430002068B0F1A04F02D02049884201D1204865
:1004400000E02048806800F0E07000020DD51E48F2
:100450001E490068B0FBF1F0401C00EB400080003A
:1004600000E0401E00900028FBD101F051FE06463E
:100470001BE0816811F0010F03D181682940491CFC
:10048000816001F045FE801B02280ED920680068BB
:10049000C043C00709D0E06D40F01000E065206E59
:1004A00040F0010020660120F8BD20680168C943C2
:1004B000C907DED10020F8BD3F00008000010050D8
:1004C000000300500007005060000020400D0300B2
:1004D00030B568480022F5EE000A9FED671A9FEDDF
:1004E000670A00F1C001032400EB021303EB84054B
:1004F000641E55ED011A012CC5ED001AF6DA604CA8
:1005000034F8124001EE904AF8EE611AC3ED001A79
:1005100093ED012A71EE821A93ED022A71EE821A8E
:1005200093ED032A01EB8203521C71EE821A042A16
:1005300061EEA01A61EE811A61EE801AC3ED001A15
:10054000D1DB0422032400EB021300BF03EB84057C
:10055000641E55ED011A012CC5ED001AF6DA484C5F
:10056000083404EB420434F8084C01EE904AF8EEEB
:10057000611AC3ED001A93ED012A71EE821A93ED10
:10058000022A71EE821A93ED032A01EB8203521CB8
:1005900071EE821A082A61EEA01A61EE811A61EEEC
:1005A000801AC3ED001ACDDB0822032400EB0213EE
:1005B00003EB8405641E55ED011A012CC5ED001AEC
:1005C000F6DA2F4C103C04EB420434F8104C01EEE8
:1005D000904AF8EE611AC3ED001A93ED012A71EE0C
:1005E000821A93ED022A71EE821A93ED032A01EB2F
:1005F0008203521C71EE821A0A2A61EEA01A61EE81
:10060000811A61EE801AC3ED001ACEDB0A220324A0
:1006100000EB021303EB8405641E55ED011A012C57
:10062000C5ED001AF6DA164C0C3C04EB420434F823
:10063000144C01EE904AF8EE611AC3ED001A93EDE6
:10064000012A71EE821A93ED022A71EE821A93ED5D
:10065000032A01EB8203521C71EE821A0C2A61EE0E
:10066000A01A61EE811A61EE801AC3ED001ACEDB8A
:1006700030BD0000D80300200000803900401C4637
:1006800034000020FEE710B5806A012180F82110B7
:10069000416A41F00801416200F082FF10BD10B5CF
:1006A000806A01680A6822F480220A60416901298F
:1006B00006D100214161012180F8211000F0DAFE0D
:1006C00010BD10B5806A01680A6822F400320A6021
:1006D00000214161012180F8211000F0CBFE10BD06
:1006E000014800F0C7BF000048060020014800F0A4
:1006F000C1BF0000A8060020014800F0BBBF0000F9
:10070000C8040020014800F0B5BF00002805002003
:10071000014800F0AFBF000088050020014800F04C
:10072000A9BF0000E80500200D4902688A4201D2F5
:100730000C4901E00B492031D2B21423083AB2FB34
:10074000F3F2436C02F01F0223F0030319448164A7
:1007500004498031C1640121914001657047000066
:1007600008040240000802400179074A02EB8102B6
:100770004265054A4432491E826501F01F0201218B
:100780009140C16570470000FC08024030B5D0E9D7
:1007900013456560446D14B1D0E91645656090F865
:1007A000444004F01F050124AC40056C6C600468F3
:1007B00063608368102B036803D099600068C2608F
:1007C00030BD9A600068C16030BD704772B6FEE708
:1007D000014801F019B900005802002010B50B4B78
:1007E00040220024C3E90024C3E902411C615C618A
:1007F0009C61DC6102461946A1F5A6701C6201F0FD
:10080000ADF8002800D0012010BD0000A403002096
:10081000F0B5D1E901650C692C430D68C6B145F00E
:1008200080452C43D1E90665354391F820704E6927
:10083000406D46EA076635438E8903EBC30300EB40
:10084000C30045EA0645E0E802450023084C0AE0FB
:1008500044EA8544E6E7D618D55CD6F801601B1D4E
:1008600045EA062520C0CD68655D9D42F3D8F0BD00
:100870008643000870B5044601F04AFC054620682E
:10088000016941F4803101614FF4FA760BE000BF59
:1008900001F03EFC401BB04205D9606B40F0800087
:1008A0006063012070BD20680069C003F0D400209F
:1008B000606370BD10B5044600F005F82046BDE841
:1008C000104000F008B80021C16041610182202180
:1008D00080F83310704700218161016281832021FB
:1008E00080F83210704700002DE9F04F044690F870
:1008F00058009BB00F464FF0000B012812D001208A
:1009000084F8580000261796189620684FF0A048E3
:10091000DFF81C91DFF81CA1474D404506D1284661
:10092000009508E002201BB0BDE8F08F48450AD1D1
:100930005046CDF800A002F037FE0090206802F08B
:1009400033FE40B109E0E06D40F02000E06584F83E
:1009500058600120E7E7009850B1E06D40F02000BA
:10096000E0654FF0010B00BF84F858605846DAE7A5
:1009700020684146884201D0A84201D12F4800E0BA
:100980002F48D7F800C02F4B40F61F72BCF1000F64
:100990002DD0D0F808C094F838802CF4604C4CEA84
:1009A000483CD7F804804CEA080CC0F808C0D4F8DA
:1009B00000C08C4501D0AC4504D18968AB6801F01A
:1009C000010109E0D9F80810DAF8085001F0010136
:1009D00005F001059B68294303F001031943C3D1C6
:1009E000BB68396819438368934319431DE08768DE
:1009F00027F46047876027688F4201D0AF4204D157
:100A00008968AB6801F0010109E0D9F80810DAF84B
:100A1000085001F0010105F001059B68294303F02E
:100A200001031943A0D18168914381609CE70000D4
:100A30000004005000050050000100500003005069
:100A400000070050000600502DE9F84F002704462B
:100A5000009790F85800DFF81C840D46B94601282D
:100A600011D0012684F85860206802F099FD60B129
:100A7000E06D40F02000E0655FF0010784F85890D9
:100A80003846BDE8F88F0220FBE7D5E900210C23AA
:100A9000206803EA91131844036B01F01F014FF023
:100AA0001F0C0CFA01FCC2F3846223EA0C038A4097
:100AB00013430363206802F073FD8246206802F04E
:100AC0006BFD5AEA00003CD1AA6829682068B2F19F
:100AD000004F37D002F074FD2068416921F00041D9
:100AE000416120686969C268C2F3C1025200914045
:100AF0002A69042A31D000EB82002B68026EDFF8ED
:100B000078C303F0F84302EA0C020B431A4342F0A5
:100B10000041016622682869A96902EB8000026E23
:100B200022F080720A430266297F2268286901291F
:100B300010D0002102EB8000026E22F000720A4306
:100B400002667DE0002202F03BFD2068416941F031
:100B50000041C5E74FF00071ECE7002102F016FDFF
:100B6000400320684FF0000172D002F00FFD90FAB0
:100B7000A0F0B0FA80F1286842036ED090FAA0F09D
:100B8000B0FA80F0814204D100221146206802F0C0
:100B900026FD0121206802F0F9FC400320684FF097
:100BA00001015DD002F0F2FC90FAA0F0B0FA80F101
:100BB0002868420359D090FAA0F0B0FA80F0814240
:100BC00004D100220121206802F009FD02212068E1
:100BD00002F0DCFC400320684FF0020148D002F034
:100BE000D5FC90FAA0F0B0FA80F12868420344D016
:100BF00090FAA0F0B0FA80F0814204D100220221E4
:100C0000206802F0ECFC0321206802F0BFFC4003E6
:100C100020684FF0030133D002F0B8FC90FAA0F046
:100C2000B0FA80F1286842032FD090FAA0F0B0FA11
:100C300080F0814204D100220321206802F0CFFC21
:100C40002068816811F0010F22D0ACE000E004E0E0
:100C500002F09CFCC0F384618DE7C0F3846091E7EF
:100C600002F094FCC0F38461A2E7C0F38460A6E7BD
:100C700002F08CFCC0F38461B7E7C0F38460BBE78B
:100C800002F084FCC0F38461CCE7C0F38460D0E759
:100C90002A7B296850F8B03FC1F3120C23EA0C03F9
:100CA00002F0180C754A22FA0CF20A401343036052
:100CB000E968414577D1286841031CD090FAA0F13A
:100CC000B1FA81F1491C01F01F0109294FEA4031B5
:100CD00032D8002912D000BF90FAA0F1B1FA81F108
:100CE00001F1010101F01F0106FA01F609D100BF6F
:100CF000C0F3846109E0C0F38461E3E7C0F3846179
:100D0000EEE790FAA0F1B1FA81F101F1010101F0F1
:100D10001F0146EA816102D1C0F3846003E090FACA
:100D2000A0F0B0FA80F000F1010000F01F0000EB2D
:100D3000400041EA005132E000290ED090FAA0F1C3
:100D4000B1FA81F101F1010101F01F0106FA01F68A
:100D500006D100BFC0F3846106E0C0F38461F1E70F
:100D600090FAA0F1B1FA81F101F1010101F01F0146
:100D700046EA816102D1C0F3846003E090FAA0F0FA
:100D8000B0FA80F000F1010000F01F003C4A00EBD7
:100D9000400002EB005041EA000141F00071AA68F6
:100DA000206802F00DFC37482B6803423FF466AE22
:100DB00021684FF0A04C3448344E354D614501D088
:100DC000A94201D1024600E032469268DFF8C480B1
:100DD00002F0E072434503D0DFF8BC80434521D1E7
:100DE0005FEA02281ED4614506D02C4B99427FF45D
:100DF00045AEA94200D0304642F40001826822F09C
:100E0000E0720A438260264826490068B0FBF1F090
:100E1000401C00EB4000800000E0401E00900028D5
:100E2000FBD12BE6DFF8808043450FD15FEAC21883
:100E30000CD4A94202D11D4B9942F2D0614502D097
:100E4000A94200D0304642F080710CE0DFF86080AB
:100E50004345E6D15302E4D4A942E2D0614500D033
:100E6000304642F48001826822F0E0720A438260D8
:100E700004E6000000007F4000F0FF03FFFF0700D2
:100E8000000020FE00000880000300500007005012
:100E900000010050000021C31000C0900006005067
:100EA00060000020400D0300000052C70005005004
:100EB000000084CB7047704770470000F8B54FF0D2
:100EC000000504002E46009502D0E06D10B107E049
:100ED0000120F8BD204600F009F9266684F8586024
:100EE00020688168C1F3407119B18168734A11406B
:100EF000816020688168C1F3007189B98168704A96
:100F0000114041F0805181606E486F490068B0FB2C
:100F1000F1F04000801C00E0401E00900028FBD152
:100F200020688168C1F3007141B9E16D41F01001A1
:100F3000E165216E41F001012166012502F030FBDF
:100F4000E16DC90600D430B1E06D40F01000E065FD
:100F500001252846F8BDE06D20F4807040F00200C5
:100F6000E0652068816811F0010F27D14FF0A043A0
:100F7000564A984201D0904204D19968966801F08F
:100F800001010AE052498968524E01F00101B66838
:100F900006F001063143504EB66806F001063143B3
:100FA0000CD1984201D0904201D14C4800E04C480D
:100FB0006168826822F47C120A438260E168E06B17
:100FC000627F0843A16841EA4231084394F8241043
:100FD00040EA0140012904D1218D424A02EB4141FE
:100FE0000843E16A29B101F47871226B014342EAB6
:100FF00001002268D1683C4B19400143D160206850
:101000000169626B21F0406111430161206802F0C7
:10101000C3FA70BB207F94F838102268800340EA3E
:101020004100D16844F2020399430143D160206931
:101030000028206801690AD041F4803101612068EC
:1010400050F8C01F22696FF30D01114307E021F42E
:1010500080310161206850F8C01F6FF30D010160FD
:1010600094F8400001280CD02068016921F00101AA
:101070000161606901282068016B21F00F0111D026
:1010800013E0D4E911010843D4E9131211430843D2
:1010900021680A6940F2FC739A43104340F0010052
:1010A0000861E6E7226A521E11430163E06D20F0F9
:1010B000020040F00100E0654BE70000C0FFFF5F69
:1010C000C0FFFF7F60000020400D030000010050C2
:1010D00000040050000500500006005000030050BE
:1010E000000700500000FEFF0740F0FF2DE9F04F21
:1010F0009BB00646142115A8FFF7DEF85421684678
:10110000FFF7DAF84FF40042306800259103824F70
:10111000824C4FF003084FF080094FF4807A4FF46F
:10112000806BB0F1A04F10D07D4B98427CD16846C7
:101130000092119101F0EAF808B1FFF747FB386817
:10114000401C3860012838D03FE068460092119179
:1011500001F0DCF808B1FFF739FB3868401C386053
:10116000012807D1E06C40F40050E064E06C00F42A
:1011700000501A90E06C40F00100E064E06C1795BC
:1011800000F001001A900F20CDE9150815A94FF0C5
:10119000904000F099FE644C624801C40520E4E8E8
:1011A00002052020A4E8200E64E807055E48AAE0B6
:1011B0007465A6621BB0BDE8F08FE06C40F400508F
:1011C000E064E06C00F400501A90E06C40F0040021
:1011D000E064E06C00F004001A90E06C40F0010064
:1011E000E064E06C15A900F001001A90112044465B
:1011F00081E831004D4800F067FE15A9C02081E864
:1012000031004FF0904000F05FFE4648484C1430EB
:1012100001C42420E4E802052020A4E8200E64E8AC
:10122000070543486FE0FFE7424B9A01D10398421C
:1012300033D168460092129101F068F808B1FFF7C7
:10124000C5FA7868401C7860012807D1E06C40F44A
:101250008040E064E06C00F480401A90E06C40F064
:101260000200E064E06C179500F002001A9042F270
:101270000200CDE9150815A92F4800F025FE2948E0
:101280002E4C283001C42520E4E802052020A4E8E3
:10129000200E64E80705294835E0294B984289D19A
:1012A00068460092129101F031F808B1FFF78EFA0A
:1012B0007868401C7860012807D1E06C40F48040D9
:1012C000E064E06C00F480401A90E06C40F00200B2
:1012D000E064E06C179500F002001A904FF4A04013
:1012E000CDE9150815A9144800F0EEFD0D48154C80
:1012F0003C3001C42620E4E802052020A4E8200EAA
:1013000064E807050F4800F013FA00283FF450AFD7
:10131000FFF75CFA4CE700004C0000200010024090
:101320000001005030000240C804002000080048BE
:101330002805002000040050000400488805002013
:1013400000050050E80500202DE9F047044600683C
:101350004FF0A0483D4F91468A46404501D0B842E3
:1013600001D13B4900E03B49896801F01F0502F0CB
:1013700017F9002868D194F85800012864D001209A
:1013800084F8580034492068884201D1012000E0E7
:101390000020401E28424FF0000605D0052D03D046
:1013A000092D01D0012003E02046FFF72FF818B1E6
:1013B00084F85860BDE8F087E06D40F6016188432D
:1013C00040F48070E0652068B84201D1414605E0F4
:1013D0002249884201D1224900E00146814200D0E1
:1013E0001DB9E06D20F48010E065E06DC00404D507
:1013F000206E20F00600206600E02666616D194828
:10140000C862616D18480863616D184848632168B7
:101410001C20086084F858602068416841F0100181
:1014200041602068C16841F00101C16021684B46FC
:1014300052464031606D00F0DBF921688A680C4B40
:101440001A40121D8A60B5E70220B3E70001005080
:101450000003005000070050000600500005005037
:10146000000400507F03000801040008E70300089F
:10147000C0FFFF7F704700002DE9F0471D00089E68
:101480008946044604D0022E06D0032E04D005E07F
:10149000606A40F0010030E0002AF9D0012E01D04E
:1014A000032E02D1B9F1000FF2D094F821000128E7
:1014B00003D0606A40F002001FE00020606202205A
:1014C00084F82100DFF884806F006661022E01D06D
:1014D000032E1BD1E1691E48C862E169C1F834805E
:1014E00021680868000300D53B460831E06900F038
:1014F0007FF930B1606A40F0080060620120BDE809
:10150000F0872068016841F400310160012E01D0AC
:10151000032E18D1A1690F48C862A169C1F83480AF
:1015200022681068C00201D53B4600E02B464946C0
:10153000121DA06900F05CF90028DBD12068016869
:1015400041F4802101600020D9E7000087060008EF
:10155000C30600089F06000830B590F8213000222D
:10156000012B06D0416A41F002014162012210467E
:1015700030BD8C690B680D6923434C6800682C43AF
:1015800023434C6923438C68C96823430B43016898
:10159000024C21400B430360E9E7000000F887FF9D
:1015A000704790F82100704770B5040004D094F89B
:1015B0002100002510B106E0012070BD84F8205004
:1015C000204600F00BF865626560A560E560256166
:1015D0000120656184F82100002070BD2DE9F843E9
:1015E000064600681E49884237D11E48816C41F08A
:1015F00008018164806C1D4C00F0080000901A48BE
:10160000206070200025C4E9010504F10C0080274A
:101610004FF400784FF4006980E8A003E5612046AC
:10162000256200F085F808B1FFF7D0F8F461A662F2
:101630000D480F4C143004F10801206071206060E7
:10164000102081E8A103E5612046256200F070F8D2
:1016500008B1FFF7BBF8B461A662BDE8F8830000EB
:10166000000C024000100240080002404806002022
:10167000A8060020F0B4016C0C6801680D6890F8B1
:10168000442002F01F06042202FA06F3234211D07E
:101690006B070FD50B689B0603D40B6823F004037C
:1016A0000B6090F8441001F01F018A40016C4A6001
:1016B000016B1DE0022303FA06F727424FF0000CEE
:1016C0004FF0010218D0AF0716D50C68A40605D458
:1016D0000C6824F00A040C6080F8252090F844106F
:1016E00001F01F018B40016C4B6080F824C0C16A7F
:1016F00000291AD0F0BC08470823B340234214D075
:101700002B0712D50B6823F00E030B6090F84410E2
:10171000036C01F01F0102FA01F15960C26380F805
:10172000252080F824C0416BE2E7F0BC7047000040
:1017300070B504000CD02B4A21681420914209D2C4
:10174000294A0A44B2FBF0F08000606427480AE0AE
:10175000012070BD234A52420A44B2FBF0F08000DF
:101760006064204808382064022084F825000A6854
:1017700047F6F0708243D4E902031843D4E90435F4
:101780002B431843A3691843E3691843236A18439A
:10179000104308602046FEF7C7FFA0680025B0F59B
:1017A000804F00D16560A16C20790860D4E91301F5
:1017B00041606068401E032808D82046FEF7D4FF29
:1017C000606D0560D4E91601416002E06565A565BC
:1017D000E565E563012084F8250084F824500020A5
:1017E00070BD000008040240F8FFFDBF0000024089
:1017F00070B5044690F82400002501280CD0012083
:1018000084F8240094F825600020012E06D084F886
:1018100024000225284670BD022070BD022684F8EF
:101820002560E0632068066826F001060660204611
:10183000FEF7ACFF206B00282068016802D041F061
:101840000E0106E021F0040101602068016841F00A
:101850000A010160A06C0168C90303D5016841F465
:1018600080710160606D18B1016841F480710160A0
:101870002068016841F001010160CBE730B590F8C4
:101880005C30012B07D0022B05D0016E41F0020124
:101890000166012030BD0468A36D4D0701D0DD074E
:1018A0001DD011F0380F01D09D0718D511F4E07F3D
:1018B00001D05D0713D511F4F05F01D01D070ED5DF
:1018C00011F4604F01D0DD0609D511F4403F01D07D
:1018D0009D0604D511F47C0F05D05D0603D4E56D9B
:1018E00045F00105E5654C0701D0DC071DD111F07D
:1018F000380F01D09C0718D411F4E07F01D05C07A9
:1019000013D411F4F05F01D01C070ED411F4604F12
:1019100001D0DC0609D411F4403F01D09C0604D468
:1019200011F47C0F06D05B0604D50368DC6D44F02F
:101930000204DC650B0604D5036853F8DC4F14433E
:101940001C60CB0504D5036853F8E04F14431C60BA
:101950000068426D0A434265002030BD70B5044600
:1019600090F85C00022803D0206E40F0080007E0E9
:101970002068D0F8C4309B0205D5206E40F400707A
:101980002066012070BDD0F8C400C0F301452B468D
:101990002046FEF73DFF21680120A840C1F8CC0099
:1019A000A065002070BD10B590F85C20012A07D01A
:1019B000022A05D0016E41F002010166012010BD2E
:1019C0000A687AB10B7B0A690C7A42EA43734A6966
:1019D000406C496842EA847200EBC100C0E9003201
:1019E000002010BD0B7A4A690C8A42EA83720B7B95
:1019F000006CDB06496843EA04431A4340F821209F
:101A0000EEE77047704770472DE9F05F04460068C5
:101A1000016D426D01F4E05102EA0108016D426D71
:101A200001F0070102EA0109016D426D01F0380180
:101A300002EA010A016D476D01F471010F40016D69
:101A4000426D01F46021456D02EA010B016DCE4348
:101A5000710607D4E943490604D4402101652046B4
:101A6000FFF7D1FFF0050ED4E843C0050BD4206882
:101A7000D0F8D820D0F8E01011404FF48072026501
:101A8000204600F0DFF9B8F1000005D021680865B4
:101A90004146204600F0D8F9B9F1000005D0216890
:101AA00008654946204600F0B3F9BAF1000005D0B8
:101AB000216808655146204600F0ABF9B00509D40D
:101AC000E843800506D421684FF40070086520467D
:101AD00000F0BBF930060DD4E84300060AD42068B4
:101AE000D0F8D420D0F8DC101140802202652046C6
:101AF00000F0A9F9B00409D4E843800406D42168B1
:101B00004FF400500865204600F09BF9300409D4DA
:101B1000E843000406D421684FF4004008652046DD
:101B200000F08EF970040AD4E843400407D4216819
:101B30004FF480400865206E40F080002066BBF1C5
:101B4000000005D02168086559462046FFF75AFF76
:101B500027B120680765206E38432066206E002874
:101B600002D02046FFF74DFFBDE8F09F2DE9F04180
:101B7000040006D0DFF8F48194F85C00002518B169
:101B800007E00120BDE8F08184F85D50204600F0B8
:101B9000F9F82068816921F01001816100F0B8FA3C
:101BA0000646032705E000BF00F0B2FA801B0A28B2
:101BB00011D8206880690007F6D42068816941F057
:101BC0000101816100F0A4FA06460BE000F0A0FAE2
:101BD000801B0A2806D9206E40F00100206684F898
:101BE0005C70CEE720688069C007EFD0206881690B
:101BF00041F0020181612168414502D15C49606880
:101C00000860207C01282068816937D041F04001BC
:101C10008161607C01282068816932D021F4804193
:101C20008161A07C0128206881692DD041F4805118
:101C3000816120688169A26821F44071114381614A
:101C40002068816921F0A40181612068016921F087
:101C500010010161E068012819D010B302281BD0DF
:101C60002068816941F0800181612068016941F04B
:101C700010010161E06803280ED012E021F040015C
:101C8000C6E741F48041CBE721F48051D0E72068DA
:101C9000816941F0040103E02068816941F020017D
:101CA0008161207EE26940066FF0FF0101EB0222B4
:101CB000A0F100701043226AA38A521E10430A0248
:101CC00002EB034318432368D861A068B0F5407F56
:101CD00010D1D4E90A0301EB0321401E0843216B14
:101CE000131303EB01110843A18C02EB01410843DC
:101CF0002168C860206850F8C01FE26B1143016082
:101D00001D4A21681B48914200D11C481C4A91423F
:101D100001D100F5D460206451F8802FA38E22F405
:101D2000F81242EA03420A6000F17001616421681E
:101D300051F8802F94F8383022F0706242EA036242
:101D40000A6000F1B001A164D831E164D8312165A5
:101D500018316165D83100E020C08842FCD3A56508
:101D60002566012084F85C0000200BE70064004039
:101D70000065004000A400400068004050A70040FB
:101D8000006C004010B59CB00446142115A8FEF765
:101D900093FA54216846FEF78FFA1B49206888425F
:101DA00030D18014009040030E90684600F0AEFAE7
:101DB00008B1FEF70BFD1548816D41F0007181659A
:101DC000816D01F000711A91C16C41F00101C16493
:101DD000C06C15A900F001001A904FF4C050159086
:101DE0000220169000201790189009201990C00624
:101DF00000F06AF800221146152000F0EFF91520D6
:101E000000F0DEF91CB010BD00640040001002407C
:101E10007047704790F85C10012905D0016E41F0C1
:101E20000401016601207047022180F85C100168FE
:101E30008A6922F001028A61002101660846704722
:101E400070477047704770477047704770B504001F
:101E500004D094F83100002510B106E0012070BDD7
:101E600084F83050204600F01BF820466560FEF7ED
:101E700021FD2046FEF7FEFC012808D065632020E6
:101E800084F831005FF0000084F8305070BD606B62
:101E900040F010006063A02084F831000120F3E7D7
:101EA00008B500680649884208D10648816C41F0AF
:101EB00010018164806C00F01000009008BD0000EB
:101EC00000140240001002402DE9F04FDFF820928C
:101ED000002301260324A9F1040B85B00F2709F183
:101EE000040AABF1040EFAE006FA03F52A407CD0AE
:101EF00091F804C00CF0030CBCF1010F02D0BCF14E
:101F0000020F26D1D0F808C0CDF800C04FEA430C2C
:101F100004FA0CF8CDF810C0DDF800C02CEA080C6B
:101F2000CDF800C0D1F80C80DDF810C008FA0CF82C
:101F3000DDF800C048EA0C08C0F80880D0F804C0FA
:101F40002CEA050C0D79C5F300159D4045EA0C05FA
:101F500045600D79ED43AD070ED0C5684FEA4308E3
:101F600004FA08FC25EA0C05D1F808C00CFA08FCB4
:101F70004CEA050CC0F80CC00D7905F00305022DE4
:101F800016D1DD0800EB850CCDF808C0DCF8208008
:101F90005D074FEAD56C07FA0CF528EA05080D69CC
:101FA00005FA0CF5DDF808C045EA0805CCF8205024
:101FB00005684FEA430CCDF808C004FA0CFC25EA8A
:101FC0000C0591F804C00CF00308DDF808C008FA0D
:101FD0000CF848EA0508C0F800804D6815F4403F49
:101FE0007CD0444DD5F860C000E077E04CF0010CA7
:101FF000C5F860C02D6E23F0030C05F001050095B7
:102000003D4D65440295AD684FEA837C4FEA1C78EC
:1020100007FA08FC25EA0C05B0F1904F06D0DFF86E
:10202000DCC0604505D14FF0010C20E04FF0000C02
:102030001DE0DFF8CCC0604502D14FF0020C16E085
:10204000DFF8C0C0604502D14FF0030C0FE0DFF8AD
:10205000B8C0604502D14FF0040C08E0DFF8ACC016
:10206000604502D14FF0050C01E04FF0060C0CFA70
:1020700008FC4CEA050C029DC5F808C0D9F80050D0
:10208000CC46D1F8048095435FEAC82800D51543B3
:10209000CCF80050DAF80050D446D1F804809543CB
:1020A0005FEA882800D51543CCF80050DBF80050D3
:1020B000DC46D1F8048095435FEA883800D51543A3
:1020C000CCF80050DEF80050F446D1F80480954377
:1020D0005FEAC83800D51543CCF800505B1C0A688D
:1020E00032FA03F57FF400AF05B0BDE8F08F0000D1
:1020F00008040140001002400000014000040048B4
:1021000000080048000C0048001000480014004877
:102110000148806870470000540000200248816830
:1021200042681144816070475400002010B50024BB
:10213000032000F073F80F2000F008F808B1012424
:1021400001E000F025F8204610BD000070B50E4EED
:1021500005460024706898B14FF47A71B1FBF0F035
:102160000A490968B1FBF0F000F076FD40B9102D86
:1021700006D200222946501E00F030F8356000E0FB
:102180000124204670BD00005400002060000020A3
:102190000A4882B0016E41F001010166016E01F052
:1021A00001010091816D41F080518165806D00F0E9
:1021B0008050009002B000F0A1B800000010024072
:1021C000002809DB00F01F02012191404009800036
:1021D00000F1E020C0F8001170470000F0B40E4B91
:1021E0001B680C46C3F30223C3F10705042D00D975
:1021F0000425191D072901D2002300E0DB1E01265A
:1022000006FA05F1491E214099409E40761E16406F
:102210003143F0BC01F040BF0CED00E0064900F096
:10222000070208684FF6FF03184040EA0220034AFD
:1022300010430860704700000CED00E00000FA0554
:102240002B492C4B0A6832214A432B4940B1B0F547
:10225000007F086829D020F4C06040F480602CE042
:102260000868C0F34120022804D051F8800F20F400
:10227000807022E0D1F8800020F48070C1F88000E6
:10228000086820F4C06040F400700860B2FBF3F00E
:10229000401C00E0401E4A69520501D50028F9D1D2
:1022A000486940050AD503207047C0F34120022841
:1022B00006D051F8800F40F480700860002070470D
:1022C000D1F8800040F48070C1F88000086820F4E4
:1022D000C06040F400700860B2FBF3F0401C00E006
:1022E000401E4A695205DBD50028F9D1D8E7000025
:1022F0006000002040420F000070004002488168EA
:1023000041F4804181607047007000402DE9F8433E
:10231000044600680026BB4D00035ED5A86D00276B
:10232000C00008D4A86D40F08050A865A86D0127B2
:1023300000F080500090DFF8D092D9F8001041F4FE
:102340008071C9F80010FFF7E3FE804606E000BF89
:10235000FFF7DEFEA0EB080002282BD8D9F800001A
:10236000C005F5D5D5F8900010F4407014D0216D5B
:10237000814211D0D5F89000D5F8901020F440702B
:1023800041F48031C5F89010D5F8901021F48031D7
:10239000C5F89010C5F89000C00711D0FFF7B8FE3F
:1023A000804641F2883907E0FFF7B2FEA0EB080152
:1023B000494501D903260BE0D5F890008007F3D5F5
:1023C000D5F89000216D20F440700843C5F89000C6
:1023D0001FB1A86D20F08050A8652078C00707D0F5
:1023E000D5F88800616820F003000843C5F888002C
:1023F0002078800707D5D5F88800A16820F00C0068
:102400000843C5F888002078400707D5D5F888002C
:10241000E16820F030000843C5F888002078000704
:1024200007D5D5F88800216920F0C0000843C5F819
:1024300088002078C00607D5D5F88800616920F4A7
:1024400040700843C5F888002078800607D5D5F885
:102450008800A16920F440600843C5F8880020780E
:10246000400607D5D5F88800E16920F440500843BC
:10247000C5F888002078000607D5D5F88800216ABD
:1024800020F440400843C5F888002088C00507D5DF
:10249000D5F88800616A20F440300843C5F8880008
:1024A0002068800307D5D5F89C00A16A20F00300BE
:1024B0000843C5F89C002088800507D5D5F888001A
:1024C000E16A20F440200843C5F8880020884005D0
:1024D0000FD5D5F88800216B20F440100843C5F8CB
:1024E0008800206BB0F5801F03D1E86840F48010AD
:1024F000E860208800050FD5D5F88800616B20F4CE
:1025000040000843C5F88800606BB0F5800F03D128
:10251000E86840F48010E8602088C0040FD5D5F842
:102520008800A16B20F040700843C5F88800A06BBC
:10253000B0F1807F03D1E86840F48010E860208823
:102540004FF0006180040ED5D5F88800E26B20F0D2
:1025500040601043C5F88800E06B884203D1E8680A
:1025600040F48010E860208840040ED5D5F888003B
:10257000226C20F040601043C5F88800206C88422F
:1025800003D1E86840F48010E860208800040FD58B
:10259000D5F88800616C20F040500843C5F88800E9
:1025A000606CB0F1805F03D1E86840F48030E8608F
:1025B0002068C0030FD5D5F88800A16C20F04040FA
:1025C0000843C5F88800A06CB0F1804F03D1E868DB
:1025D00040F48030E860206840030FD5D5F89C00B7
:1025E000E16C20F440100843C5F89C00E06CB0F5A5
:1025F000001F03D1E86840F48010E8603046BDE871
:10260000F883000000100240007000402DE9F04700
:102610000E4605004FF0000725D0DFF8AC81D8F852
:10262000000000F00F00B0420CD2D8F8001021F0EA
:102630000F013143C8F80010D8F8000000F00F0077
:10264000B04210D12968614CC80741F2883A5AD08B
:102650006868DFF87C91032808D0022820682DD014
:10266000400500282CDB0120BDE8F08720688001B0
:10267000F9D5E06800F00302E068C0F30310401CE5
:10268000032A19D0534A00BFB2FBF0F0E268C2F34C
:1026900006225043E268C2F34162521C5200B0FB72
:1026A000F2F0484517D9A06810F0F00F0CD0880759
:1026B00011D5A86840B10EE0474AE5E78003D0E7AE
:1026C00000F092F8484506D9A06820F0F00040F0EC
:1026D0008000A0608027A068696820F0030008439C
:1026E000A060FFF715FD814606E000BFFFF710FD73
:1026F000A0EB090151453AD8A068696800F00C00C8
:10270000B0EB810FF2D12868810714D5400703D5BB
:10271000A06840F4E060A0602878000705D5A068B4
:1027200020F4605040F4E060A060A068A96820F048
:10273000F000084304E0802F03D1A06820F0F000EF
:10274000A060D8F80010404601F00F01B14216D940
:10275000016821F00F0131430160FFF7D9FC074602
:1027600007E000BFFFF7D4FCC11B514501D903208E
:102770007AE7D8F8000000F00F00B042F2D12878D4
:10278000400705D5A068E96820F4E0600843A06030
:102790002878000706D5A068296920F4605040EA2F
:1027A000C100A06000F020F8A1680C4AC1F3031139
:1027B000515C01F01F01C8400949086009480068E0
:1027C000BDE8F047FFF7C2BC002002400010024005
:1027D00000B4C4040024F40000127A0096430008F8
:1027E0006000002054000020184910B58868C0F32C
:1027F00081021748012A0BD08A684310C2F3810274
:10280000022A06D08A68C2F38102032A03D000207C
:1028100010BD184610BDCA6802F00304CA68C2F3AE
:102820000312521C032C02D0B0FBF2F001E0B3FB08
:10283000F2F0CA68C968C2F306225043C1F341618D
:10284000491C4900B0FBF1F010BD0000001002402F
:102850000024F4002DE9F84304007AD02078F84DE4
:10286000C00747D0A868E96800F00C0001F0030138
:102870000C2802D0082817D001E0032914D0606882
:10288000B0F5803F17D0B0F5A02F286817D020F4FE
:1028900080302860286820F4802028606068E0B1DB
:1028A000FFF736FC064614E02868800322D56068EE
:1028B0000028D2D01EE0286840F48030EDE740F4D4
:1028C00080202860F7E700BFFFF722FC801B642808
:1028D00070D828688003F7D50CE0FFF719FC06468E
:1028E00005E000BFFFF714FC801B6428F0D82868BF
:1028F0008003F7D4207880074CD5A868E96800F0F9
:102900000C0001F003010C2802D004280DD001E0D6
:1029100002290AD0E068002828682BD040F4807093
:102920002860FFF7F5FB064619E02868400502D548
:10293000E068002891D06868217C20F0FE4040EAE1
:1029400001606860BF480068FFF700FC002800D104
:1029500020E072E1FFF7DCFB801B0228B8D8286872
:102960004005F7D56868217C20F0FE4040EA016010
:1029700068600FE020F480702860FFF7C9FB06460E
:1029800005E000BFFFF7C4FB801B0228A0D8286821
:102990004005F7D42078000729D560690028D5F8CC
:1029A000940013D040F00100C5F89400FFF7B0FB8D
:1029B000064606E090E000BFFFF7AAFB801B022856
:1029C00086D8D5F894008007F6D510E020F00100F5
:1029D000C5F89400FFF79CFB064604E0FFF798FB60
:1029E000801B022878D8D5F894008007F6D4207888
:1029F000400761D5A86D0026C00008D4A86D40F03E
:102A00008050A865A86D012600F0805000908E4887
:102A10000168C90511D40168804641F480710160E4
:102A2000FFF776FB074604E0FFF772FBC01B0228A6
:102A300052D8D8F80000C005F6D5A068012815D0F6
:102A40000528D5F8900016D020F00100C5F89000B8
:102A5000D5F8900020F00400C5F89000A06841F27D
:102A60008838B8B1FFF754FB07460EE0D5F8900060
:102A700040F00100F0E740F00400C5F89000F5E7F1
:102A8000FFF746FBC11B414526D8D5F890008007CB
:102A9000F6D50CE0FFF73CFB074604E0FFF738FBF8
:102AA000C11B414518D8D5F890008007F6D41EB157
:102AB000A86D20F08050A8652078800629D5A069EF
:102AC0000028D5F8980013D040F00100C5F8980010
:102AD000FFF71EFB064606E075E000BFFFF718FB98
:102AE000801B02286FD8D5F898008007F6D510E033
:102AF00020F00100C5F89800FFF70AFB064604E045
:102B0000FFF706FB801B02285DD8D5F898008007E8
:102B1000F6D4E069F0B3A968C1F3810103295DD05F
:102B20000228286820F08070286003D0FFF7F0FAB0
:102B300004464BE0FFF7ECFA064604E0FFF7E8FA3C
:102B4000801B02283FD828688001F7D4F4E90801E7
:102B50006FF00F0202EB01110843218A5204490869
:102B600002EB4151A26841EA02210843217D4FF066
:102B70007E42490802EB41610843217B40EAC16083
:102B8000E968324A11400843E860286840F08070E4
:102B9000286000E05EE0E86840F08070E860FFF7E1
:102BA000B7FA044605E000BFFFF7B2FA001B02289F
:102BB00009D828688001F7D54CE000BFFFF7A8FAD4
:102BC000001B022802D90320BDE8F8832868800191
:102BD000F4D4E8681E490840E8603BE00128F3D0DF
:102BE000E868226A00F00301914226D1616A00F090
:102BF000F0020901103991421FD1A26A00F4FE418E
:102C0000B1EB022F19D194F82C2000F07841B1EBF0
:102C1000C26F12D1218E00F4C00249084905A1F506
:102C20000011914209D194F8341000F0C0604908B5
:102C30004906A1F1007181420CD00120C4E70000D7
:102C40000010024054000020007000400C809F01E2
:102C5000FCFFEEFE0020B7E710B5401EB0F1807F0C
:102C600001D3012010BD4FF0E02460610F216017F7
:102C700001F012FA0020A06107202061002010BDA1
:102C8000704770477047000030B590F83C20012A2B
:102C900045D0012280F83C20CA688B6822F440723B
:102CA0001A434B6822F480621A430B6822F40062D4
:102CB0001A430B6922F480521A434B6922F40052E2
:102CC0001A430B6B22F480421A430B8B22F47022BE
:102CD00042EA0342CB6922F080521A43114D036845
:102CE0000024AB4205D0104DAB4202D00F4DAB4299
:102CF00010D10D8D22F4700242EA05520D6A22F0C5
:102D000080722A434D6A22F000722A43C96A22F077
:102D100000520A435A6480F83C40002030BD022033
:102D200030BD0000002C0140003401400050014043
:102D30007047704770470000F0B590F83C20012ABA
:102D400043D0012580F83C50022280F83D200368E2
:102D50005A689C681E4E1F4FDFF87CC0B34203D0F8
:102D6000BB4201D0634504D122F4700E4A6842EAA6
:102D70000E02DFF868E002EA0E02D1F800E04EEA47
:102D8000020EC3F804E00268B24212D0B2F1804FE2
:102D90000FD0134B9A420CD0124B9A4209D0124BCF
:102DA0009A4206D0BA4204D0104B9A4201D06245F2
:102DB00004D1896824F080031943916080F83D5064
:102DC000002180F83C100846F0BD0220F0BD000054
:102DD000002C014000340140005001408FFFFFFDF6
:102DE0000004004000080040000C0040004001408A
:102DF000704710B5040003D094F83D0010B107E00F
:102E0000012010BD002084F83C00204600F022F88C
:102E1000022084F83D00211D206800F0C5FE01203D
:102E200084F8480084F83E0084F83F0084F84000AD
:102E300084F8410084F8420084F8430084F8440098
:102E400084F8450084F8460084F8470084F83D0083
:102E5000002010BD08B50068B0F1804F12D10A48BB
:102E6000816D41F001018165806D002200F001005B
:102E7000009011461C20FFF7B1F9BDE808401C2066
:102E8000FFF79EB908BD00000010024090F83D1009
:102E9000012901D001207047022180F83D1001680E
:102EA000CA6842F00102CA6000681349884214D01F
:102EB000B0F1804F11D0114988420ED0104988429C
:102EC0000BD01049884208D00F49884205D00F49DD
:102ED000884202D00E49884207D181680D4A1140CC
:102EE000062906D0B1F5803F03D0016841F0010109
:102EF0000160002070470000002C014000040040E9
:102F000000080040000C0040003401400040014037
:102F1000005001400700010070B5044690F83C00E5
:102F2000002501281CD0012684F83C60022084F88A
:102F30003D0022689068334B184020F47F40906039
:102F40000868B0F5005F2ED016DC402849D009DCB7
:102F5000D0B1102818D0202816D0302849D113E03D
:102F6000022070BD50282AD0602830D070280FD0A1
:102F7000B0F5805F3DD13DE010F00F0F39D1011168
:102F8000A1F58031072934D822680146104625E092
:102F9000CB68D1E90121206800F085FE20688168B6
:102FA00041F0770109E0CB68D1E90121206800F008
:102FB0007AFE2068816841F4804181601AE0CA6825
:102FC0004968206801F044F85021206806E0CA688A
:102FD0004968206801F04DF86021206800F06EFE1D
:102FE00008E0CA684968206801F032F8402120688A
:102FF000F4E7012584F83D60002084F83C00284671
:1030000070BD000088FFCEFF70472DE9F0410446F7
:103010000068C66805694FF00007A90713D5B10716
:1030200011D5F91E01610120207720688069800791
:10303000204602D0FFF7E8FF04E000F0E1F8204668
:1030400000F0B6F92777680716D5700714D5216800
:103050006FF004000861022020772068806910F476
:10306000407F204602D0FFF7CFFF04E000F0C8F811
:10307000204600F09DF92777280715D5300713D58E
:1030800021686FF008000861042020772068C0697B
:103090008007204602D0FFF7B7FF04E000F0B0F849
:1030A000204600F085F92777E80616D5F00614D5F6
:1030B00021686FF010000861082020772068C0693F
:1030C00010F4407F204602D0FFF79EFF04E000F09E
:1030D00097F8204600F06CF92777E80708D0F0074A
:1030E00006D021686FF001000861204600F0ECF97D
:1030F000280601D4A80408D5300606D521686FF447
:10310000025008612046FFF7BCFDE80508D53006EF
:1031100006D521686FF4807008612046FFF7B0FD86
:10312000680608D5700606D521686FF04000086172
:10313000204600F0CAF9A80608D5B00606D52168D1
:103140006FF0200008612046FFF79CFDE80208D5DB
:10315000F00206D521686FF4801008612046FFF761
:10316000E8FDA80208D5B00206D521686FF400106A
:1031700008612046FFF7DCFD680208D5700206D51D
:1031800021686FF4800008612046FFF7D3FD280214
:103190000AD5300208D521686FF400000861204686
:1031A000BDE8F041FFF724BEBDE8F08110B586B060
:1031B000044614216846FDF77FF80F4920688842CD
:1031C00017D10E48C16C41F00101C164C06C694661
:1031D00000F0010005904FF48070009002200190F3
:1031E000002002900390062004904FF09040FEF7DC
:1031F0006BFE06B010BD0000002C01400010024024
:10320000704770B5044690F83C0000260D46012832
:103210000BD0012084F83C000C2A4AD007DC82B194
:10322000042A20D0082A06D131E0022070BD102ADD
:1032300053D0142A63D00126002084F83C00304685
:1032400070BD206800F044FD2068816941F00801EC
:1032500081612068816921F00401816120688169B0
:103260002A69114311E0206800F088FD2068816917
:1032700041F4006181612068816921F4806181618C
:10328000206881692A6941EA02218161D4E72068C6
:1032900000F0C4FD2068C16941F00801C1612068E7
:1032A000C16921F00401C1612068C1692A69114323
:1032B00011E0206800F002FE2068C16941F400615D
:1032C000C1612068C16921F48061C1612068C16960
:1032D0002A6941EA0221C161AEE7206800F03EFEA2
:1032E0002068016D41F0080101652068016D21F041
:1032F000040101652068016D2A69114311E020680D
:1033000000F068FE2068016D41F4006101652068ED
:10331000016D21F4806101652068016D2A6941EA2F
:103320000221016588E710B5040003D094F83D0040
:1033300010B107E0012010BD002084F83C002046B9
:1033400000F022F8022084F83D00211D206800F0E2
:103350002BFC012084F8480084F83E0084F83F00EC
:1033600084F8400084F8410084F8420084F8430067
:1033700084F8440084F8450084F8460084F8470047
:1033800084F83D00002010BD08B500680649884259
:1033900008D10648016E41F400610166006E00F438
:1033A0000060009008BD0000002C014000100240A9
:1033B0007047000070B50446022269B1042912D09A
:1033C000082917D00C291CD0102921D094F84300CB
:1033D000012824D0012070BD94F83E000128F9D1C5
:1033E00084F83E201DE094F83F000128F2D184F8D3
:1033F0003F2016E094F840000128EBD184F84020EB
:103400000FE094F841000128E4D184F8412008E05D
:1034100094F842000128DDD184F8422001E084F8CC
:1034200043200122206800F031FC1D4920681D4A1C
:103430001D4B1E4D88420BD0904209D0984207D0B8
:103440001B4EB04204D01B4EB04201D0A84203D163
:10345000466C46F4004646642068884211D0B0F1BC
:10346000804F0ED0144988420BD01449884208D0AE
:103470001349884205D0904203D0984201D0A84217
:1034800007D181680F4A1140062906D0B1F5803F67
:1034900003D0016841F001010160002070BD00000F
:1034A000002C014000340140004001400050014028
:1034B0000044014000480140000400400008004072
:1034C000000C00400700010070477047FEE7000055
:1034D00010B52A4CB7EE001A6068401C6060D4ED4D
:1034E000050AD4ED041AB8EE600A20EE212A00EE97
:1034F000100AB8EEC00AB4EEC02AF1EE10FA0ED8E7
:1035000000209FED1F0A606031EE800A10EE100A65
:1035100084ED040AB0F1804F01DB84ED041A94EDD0
:10352000010AF8EE601AB8EEC00AC0EE210A94ED66
:10353000040A20EE800A10EE100A84ED030AB0F1AE
:103540007E5F03DB30EE410A84ED030A00F0D0FD1C
:103550000A492431081F00F0FDFD9FED0A0A94ED91
:10356000081A0949F0EE400A41EE000A0968BCEE6B
:10357000E00A10EE100A486310BD00000C000020A5
:10358000CDCC4C3E00007A44F402002000EB8100D8
:10359000006E00F0F84070478068C0F3C0007047CC
:1035A0008068C0F3800070478068C0F38000704777
:1035B000C06810F4406F01D00020704701207047B0
:1035C000042303EAD15310B518444369C1F30451ED
:1035D00007248C40A3438A401343436110BD00EB92
:1035E0008100016E21F00041114301667047000027
:1035F00030B58BB0002408940994202168460A94C1
:10360000FCF75AFE2D484FF0A041042501604FF40D
:103610004031C0E9011485610121C460C0E9044161
:1036200004774477056280F82410C0E90A540463E3
:1036300080F83840C46380F84040FDF73FFC08B193
:1036400072B6FEE708A91D480894FDF74DF908B1C8
:1036500072B6FEE71A4800900620CDE901047F20EB
:103660000594CDE9030569461448FDF7EDF908B165
:1036700072B6FEE7134800900C20019069460F488F
:10368000FDF7E2F908B172B6FEE70F48009012208C
:10369000019069460948FDF7D7F908B172B6FEE70F
:1036A0000A4800901820019069460448FDF7CCF9BB
:1036B000002801D072B6FEE70BB030BD80000020BC
:1036C00002003004040060080800900C1000C010D4
:1036D00030B589B020216846FCF7EEFD2A4829491B
:1036E000002401604FF44031C0E9011404258561D4
:1036F0000121C460C0E9044104774477056280F881
:103700002410C0E90A14046380F83840C46380F8C8
:103710004040FDF7D3FB08B172B6FEE71B480090AE
:103720000620CDE901047F200594CDE90305694613
:103730001548FDF789F908B172B6FEE71448009004
:103740000C20019069461048FDF77EF908B172B669
:10375000FEE7104800901220019069460A48FDF7E4
:1037600073F908B172B6FEE70B480090182001907B
:1037700069460548FDF768F9002801D072B6FEE7F2
:1037800009B030BD00010050EC0000200800900C92
:103790001000C0102000F0144000201930B58BB08C
:1037A000002408940994202168460A94FCF784FDBB
:1037B00023482249042501604FF44031C0E9011437
:1037C00085610121C460C0E9044104774477022285
:1037D000026280F82410C0E90A14046380F83840BB
:1037E000C46380F84040FDF769FB08B172B6FEE79C
:1037F00008A913480894FDF777F808B172B6FEE7F8
:10380000104800900620CDE901047F200594CDE901
:10381000030569460A48FDF717F908B172B6FEE7D5
:10382000094800900C20019069460548FDF70CF905
:10383000002801D072B6FEE70BB030BD0004005086
:1038400058010020020030042000F01430B589B087
:1038500020216846FCF730FD20481F490024016004
:103860004FF44031C0E90114042585610121C46091
:10387000C0E90441047744770222026280F82410F0
:10388000C0E90A14046380F83840C46380F84040FB
:10389000FDF714FB08B172B6FEE711480090062050
:1038A000CDE901047F200594CDE9030569460B4865
:1038B000FDF7CAF808B172B6FEE70A4800900C207E
:1038C000019069460548FDF7BFF8002801D072B69F
:1038D000FEE709B030BD000000050050C401002023
:1038E0000800900C1000C010214808B5816C41F010
:1038F00004018164816C01F004010091816C41F04C
:1039000001018164806C002200F0010000901146EA
:103910000B20FEF763FC0B20FEF752FC0022114641
:103920000C20FEF75BFC0C20FEF74AFC002211463F
:103930000D20FEF753FC0D20FEF742FC002211463D
:103940000E20FEF74BFC0E20FEF73AFC002211463B
:103950000F20FEF743FC0F20FEF732FC0022114639
:103960001020FEF73BFCBDE808401020FEF728BC05
:103970000010024070B51C481A490024C0E9001428
:103980008460C46004744474847406210125C0E911
:1039900005150E21C1610D21C0E908158562C562BA
:1039A000C0E90C548463C463FEF7E0F808B172B652
:1039B000FEE70E4802210460C0E90141C0E903545A
:1039C000014644610848FDF7EEFF08B172B6FEE714
:1039D0000548FEF71FFABDE87040002201210248A9
:1039E000FDF74CBF00640040580200208C0300200B
:1039F00010B598B00024149415941C210DA81694A9
:103A0000FCF75AFC34216846FCF756FC254824494B
:103A10000160A721C0E9011440F2E731C0E90314B5
:103A200044618461FFF77FFC08B172B6FEE714942D
:103A3000159414A91B481694FFF77EF908B172B6C5
:103A4000FEE760200D904FF4FA70CDE90E0410945B
:103A50001194129400220DA912481394FFF7D1FB80
:103A600008B172B6FEE700944FF40050CDE904406F
:103A700003940003CDE9084001940294069407944E
:103A80000A940B94694607480C94FFF7FDF808B1B7
:103A900072B6FEE70348FFF789FB18B010BD0000BF
:103AA000002C0140F402002010B588B00024174813
:103AB0000094019402940394049405944FF080417F
:103AC00006940160A721C0E901143121C0E9031463
:103AD0008461FFF78EF908B172B6FEE74FF48050AB
:103AE000009069460948FFF717FA08B172B6FEE779
:103AF0002020049004A906940448FFF71DF900282B
:103B000001D072B6FEE708B010BD000040030020EF
:103B1000FEE7FEE770477047FEF700BB10B594B0B4
:103B200038216846FCF7C8FB14210EA8FCF7C4FB3B
:103B30000020FEF785FB01210804CDE900100324D5
:103B4000CDE9084102202A21CDE90A1007900C9006
:103B50000D906846FEF77EFE08B172B6FEE70F20B4
:103B6000CDE90E04002010901190129004210EA8AF
:103B7000FEF74CFD002801D072B6FEE714B010BD70
:103B80000248016841F470010160704788ED00E06F
:103B900010B50348FFF739FA02490120087010BD3B
:103BA000400300200C0000202DE9F04F02682E4B4E
:103BB0002E4E2F4FDFF8BCC02F4C304D4FF0804BB6
:103BC00098420BD0584509D0B04207D0B84205D032
:103BD000604503D0A04201D0A84204D122F0700871
:103BE0004A6842EA0802DFF89880DFF89890DFF828
:103BF00098A0984211D058450FD0B0420DD0B8428D
:103C00000BD0604509D0A04207D0404505D04845BB
:103C100003D0504501D0A84203D122F44076CA68AF
:103C200032434E6922F08002324302608A68C262E7
:103C30000A688262984209D0A04207D0404505D068
:103C4000484503D0504501D0A84201D1096901631C
:103C5000012141610169C90703D0016921F0010116
:103C60000161BDE8F08F0000002C0140000400401D
:103C700000080040000C00400034014000500140AA
:103C800000400140004401400048014010B501F0EF
:103C90001F030121046A99408C430462016A9A401F
:103CA0001143016210BD10B5846842EA032224F476
:103CB0007F440A432243826010BD00008268034BA8
:103CC0001A400A4342F00701816070478FFFCFFF1F
:103CD0002DE9F047056A026A22F001020262436898
:103CE00082691F4C25F0020522400C6822F0030275
:103CF00014438A681C4E2A431A4D1C4FDFF870C0CB
:103D0000DFF87090DFF870A0A84209D0B04207D069
:103D1000B84205D0604503D0484501D0504506D192
:103D200022F00808CA6842EA080222F00402A84207
:103D300009D0B04207D0B84205D0604503D048450D
:103D400001D0504505D14D6923F440731D438B6963
:103D50002B4343608461496841630262BDE8F08798
:103D60008FFFFEFF002C0140003401400040014065
:103D7000004401400048014000500140F0B5056A90
:103D8000026A22F010020262426883691C4C1E4ED5
:103D900023400C6823F4407343EA042425F02003F5
:103DA0008D681A4F43EA0513164DA84203D0B0425E
:103DB00001D0B84207D1D1F80CC023F0800343EA08
:103DC0000C1323F04003A8420CD0B0420AD0104D8F
:103DD000A84207D00F4DA84204D00F4DA84201D0F1
:103DE000B84207D14D6922F4406242EA85028D69EA
:103DF00042EA850242608461496881630362F0BDE2
:103E0000FF8FFFFE002C01400034014000500140B4
:103E1000004001400044014000480140F0B5056AFF
:103E2000026A22F4807202624368C2691C4C1E4E10
:103E300022400C6822F00302144325F400728D68BE
:103E40001A4F42EA0522174DA84203D0B04201D0D2
:103E5000B84207D1D1F80CC022F4006242EA0C2229
:103E600022F48062A8420CD0B0420AD0104DA84281
:103E700007D0104DA84204D00F4DA84201D0B8423F
:103E800007D14D6923F4405343EA05138D6943EA92
:103E900005134360C4614968C1630262F0BD00005C
:103EA0008FFFFEFF002C0140003401400050014014
:103EB000004001400044014000480140F0B5056A5F
:103EC000026A22F4805202624268C3691C4C1E4E90
:103ED00023400C6823F4407343EA042425F4005380
:103EE0008D681A4F43EA0533164DA84203D0B042FD
:103EF00001D0B84207D1D1F80CC023F4004343EA03
:103F00000C3323F48043A8420CD0B0420AD0104DA9
:103F1000A84207D00F4DA84204D00F4DA84201D0AF
:103F2000B84207D14D6922F4404242EA85128D69B8
:103F300042EA85124260C461496801640362F0BDCF
:103F4000FF8FFFFE002C0140003401400050014073
:103F500000400140004401400048014030B5056A7E
:103F6000026A22F4803202624268036D124C2340DE
:103F70000C681C4325F400330D8943EA05430F4DBB
:103F8000A8420ED00E4DA8420BD00E4DA84208D02C
:103F90000D4DA84205D00D4DA84202D00C4DA842AF
:103FA00004D14D6922F4803242EA05224260046560
:103FB00049688164036230BD8FFFFEFF002C014021
:103FC00000340140004001400044014000480140ED
:103FD0000050014030B5046A026A22F48012026285
:103FE0004268036D134D24F400142B400D6843EA1E
:103FF00005230D8944EA05540F4DA8420ED00F4DFC
:10400000A8420BD00E4DA84208D00E4DA84205D0B4
:104010000D4DA84202D00D4DA84204D14D6922F4A5
:10402000802242EA8522426003654968C1640462D5
:1040300030BD0000FF8FFFFE002C01400034014026
:104040000040014000440140004801400050014050
:1040500010B5036A046A24F001040462846924F040
:10406000F00444EA021423F00A020A438461026263
:1040700010BD10B5036A046A24F010040462846958
:1040800023F0A00324F4704444EA023243EA01110D
:104090008261016210BDFEE70907090E002804DBFA
:1040A00000F1E02080F80014704700F00F0000F1EC
:1040B000E02080F8141D7047DFED0B0A00280ADAB3
:1040C00020F0004000EE100A9FED081AB8EEC00A7A
:1040D00030EE410A03E000EE100AB8EEC00A20EE0E
:1040E000200A81ED000A7047000000300000004FF8
:1040F00010EE100A08B5B0F17C5F03DDF7EE000AA0
:1041000030EE600AF6EE000A00F02AF904490123B5
:104110000A1D0860032000900248FDF7ADF908BDB4
:104120000000002030020020084801214FF4002246
:1041300001606021816100214160C0E90412816059
:10414000C16001460248FDF707BA00006400002084
:104150003002002070B50C4605460848FDF721FAEC
:104160000128FAD1064A29461068FFF7A5FF214623
:104170005068BDE87040FFF79FBF0000300200208C
:104180000400002008B5FDF7D1FFFFF7C7FC6A481F
:10419000C16C41F02001C164C16C01F020010091AB
:1041A000C16C41F00401C164C16C01F004010091D3
:1041B000C16C41F00101C164C16C01F001010091C9
:1041C000C16C41F00201C164C06C00F002000090BB
:1041D000FFF78AFBFFF70CFAFFF77AFAFFF7DEFA30
:1041E000FFF734FBFFF7C6FBFFF702FCFFF75CFCB1
:1041F0005349524808600846FDF7D6F908B172B62F
:10420000FEE74F494F488C3108600846FDF71EFE17
:1042100008B172B6FEE74FF0E0204B4941614B4ACE
:10422000F02182F8141D00258561072101614848AD
:10423000FEF72CFE46484C38FEF728FE4448002185
:104240004C38FFF7B7F8042242494348FDF77CF8A1
:1042500040494148042208316C30FDF775F83D496A
:10426000374802221039D838FDF76EF839493448FA
:1042700002220C396C38FDF767F8FFF755FF354C13
:10428000283C20780028FCD0FFF722F9042231498D
:104290003148FDF759F82F492F48042208316C3076
:1042A000FDF752F82B49264802221039D838FDF77D
:1042B0004BF82849224802220C396C38FDF744F8A3
:1042C000FCF706F92549234891ED000A1030BCEEB1
:1042D000C00A10EE103A038091ED010ABCEEC00A4C
:1042E00010EE102A428091ED020ABCEEC00A10EED8
:1042F000106A868091ED030ABCEEC00A10EE101A17
:10430000C1801348883003701B0A43708270120A00
:10431000C2700671320A42718171090AC171A068C6
:10432000401CA060142805D1094808218830A560E8
:10433000FCF754FA2570A4E700100240000C02407C
:1043400030020020001402403F9002000FE000E025
:10435000400300203400002080000020980400204A
:1043600080EE201A9FED040A21EE000ABDEEC00A7D
:1043700010EE100A704700000000004F4FF0407030
:10438000E1EE100A70470001020304050607080C5D
:10439000101418203040000000000000000001024E
:1043A0000304060708090000C843000800000020B5
:1043B00064000000140200082C440008640000207F
:1043C000040D0000300200080000000000000000A2
:1043D00000000000000000000000000000000000DD
:1043E000000000000000803F204E000000000000A0
:1043F00000000000000000000000000000000000BD
:1044000000000000000000000000000000000000AC
:10441000000000000000000000000000100000008C
:0C44200001000000000000000024F40077
:04000005080001D915
:00000001FF
